S01700004763634170706C69636174696F6E332E7372656359
S11300000C9434000C9468000C9451000C9451002E
S11300100C9451000C9451000C9451000C940D025A
S11300200C9451000C9451000C9451000C94CD018B
S11300300C9451000C9451000C9415010C94510033
S11300400C9451000C9451000C9451000C945100E8
S11300500C9451000C9451000C9451000C945100D8
S11300600C9451000C94510011241FBECFEFD8E022
S1130070DEBFCDBF11E0A0E0B1E0ECE9F4E002C0E6
S113008005900D92A632B107D9F721E0A6E2B1E0BE
S113009001C01D92AC33B207E1F70E942E020C940A
S11300A04C020C9400005198E9E6F0E01082808143
S11300B081608083E89A089514BC15BC16BC8FE94E
S11300C087BD85B5826085BD85B5816085BD089590
S11300D01F920F920FB60F9211242F933F934F93B9
S11300E06F937F938F939F93AF93BF93EF93FF93FC
S11300F080912A0190912B01019690932B0180937A
S11301002A0180912801813009F462C008F471C089
S1130110823009F076C020912A0130912B01809120
S11301203801909139018217930708F06AC08091D1
S113013004019091050121E030E0009711F020E0E6
S113014030E03093050120930401892B49F4809118
S11301502A0190912B01909333018093320151C075
S113016080912A0190912B01909335018093340161
S11301702091340130913501AFE8B3EE0E943D0285
S11301800024880F991F001C880F991F001C892FB9
S1130190902D909301018093000180910001909132
S11301A0010190930901809308012091000130918D
S11301B0010144E2429FC001439F900D112490939A
S11301C0070180930601109227011092260119C09D
S11301D080912A0190912B019C01220F331F820FE1
S11301E0931F909339018093380182E08093280112
S11301F008C0EEE6F0E080818260808381E0809335
S1130200280110922B0110922A01FF91EF91BF91C6
S1130210AF919F918F917F916F914F913F912F91CA
S11302200F900FBE0F901F9018951F920F920FB64C
S11302300F9211242F933F938F939F93EF93FF93E8
S113024080912A0190912B01019690932B01809328
S11302502A0120912A0130912B018091080190916B
S113026009012817390709F08BC020910801309142
S1130270090180910601909107012817390709F0B7
S113028070C08091260190912701079794F4809182
S11302902601909127019C012F5F3F4F3093270146
S11302A020932601FC01EF5EFE4F8081809329019B
S11302B04AC080912601909127010E979CF4E09109
S11302C02601F0912701ED5FFE4F80818093290183
S11302D080912601909127010196909327018093A4
S11302E0260131C0809126019091270145979CF405
S11302F0E0912601F0912701E65FFE4F8081809313
S1130300290180912601909127010196909327015C
S11303108093260118C080912601909127014C9763
S113032094F4E0912601F0912701E65FFE4F80816D
S11303308093290180912601909127010196909341
S113034027018093260120910001309101018091C1
S1130350060190910701820F931F909307018093E8
S113036006012091000130910101809108019091D2
S11303700901820F931F909309018093080102C021
S113038010922901FF91EF919F918F913F912F91AD
S11303900F900FBE0F901F9018951F920F920FB6DB
S11303A00F9211242F933F938F939F9380912C014D
S11303B090912D01019690932D0180932C01209111
S11303C00201309103018217930769F410922D0101
S11303D010922C018091080190910901019690934B
S11303E0090180930801209108013091090180914D
S11303F00601909107012817390721F48FEF8093A4
S1130400290102C0109229019F918F913F912F9150
S11304100F900FBE0F901F9018951F920F920FB65A
S11304200F9211248F939F9380912C0190912D0111
S1130430019690932D0180932C019F918F910F90A1
S11304400FBE0F901F901895982F9695969595B975
S11304508295880F880F807C8BB90895F8948FE17A
S113046084B980EC8AB90E9453000E945C0078949D
S1130470809129010E942402FBCFA29FB001B39F67
S1130480C001A39F700D811D1124911DB29F700D99
S10F0490811D1124911D0895F894FFCFE4
S113049CFF00FFFF0100FF00FF00007F0101433E4E
S11304AC000F783E033C7C070000007F0000000135
S10904BC3F6949490901F2
S9030000FC
