S01700004763634170706C69636174696F6E332E7372656359
S11300000C9434000C9464000C9451000C94510032
S11300100C9451000C9451000C9451000C94510018
S11300200C9451000C9451000C9451000C94510008
S11300300C9451000C9451000C9464010C945100E4
S11300400C9451000C9451000C9451000C945100E8
S11300500C9451000C9451000C9451000C945100D8
S11300600C9451000C94510011241FBECFEFD8E022
S1130070DEBFCDBF11E0A0E0B1E0EEE2F6E002C0E9
S113008005900D92AE3FB107D9F722E0AEEFB1E093
S113009001C01D92A631B207E1F70E94D2010C946F
S11300A015030C9400005298E9E6F0E08081816029
S11300B08083E89A08958FE987BD85B5826085BD00
S11300C085B5816085BD08951F920F920FB60F927A
S11300D011242F933F934F936F937F938F939F9309
S11300E0AF93BF93EF93FF938091FE01813009F4A6
S11300F05AC008F469C0823009F06EC0209102022F
S1130100309103028091100290911102821793079B
S113011008F062C0809100029091010221E030E079
S1130120009711F020E030E03093010220930002A8
S1130130892B09F451C0809102029091030290939B
S11301400D0280930C0220910C0230910D02AFE855
S1130150B3EE0E94E5010024880F991F001C880F4C
S1130160991F001C892F902D9093070180930601FD
S1130170809106019091070190930B0180930A01ED
S1130180209106013091070144E2429FC001439F40
S1130190900D112490930901809308011092090293
S11301A01092080219C080910202909103029C01EE
S11301B0220F331F820F931F90931102809310021A
S11301C082E08093FE0108C0EEE6F0E08081826068
S11301D0808381E08093FE01109203021092020258
S11301E0FF91EF91BF91AF919F918F917F916F910B
S11301F04F913F912F910F900FBE0F901F90189524
S1130200CF93DF93EC01FC0101900020E9F73197D3
S1130210E81BF90BCF01880F991F880F991F880FCE
S1130220991F8E1B9F0B01960E94F401BC01E8816B
S1130230EE2301F1219640E050E08FEB8E0F8A31DE
S1130240A8F4F0E0EE0FFF1FE657FF4F0190F08196
S1130250E02DDB01A40FB51F9F01295F3F4F919152
S11302609D932E173F07D9F7495F5F4FE991E1113D
S1130270E4CF02C040E050E050930F0240930E02DE
S11302807093050260930402DF91CF9108958091E9
S113029008029091090220910E0230910F02281752
S11302A0390784F02091040230910502AC014F5FBC
S11302B05F4F5093090240930802F901E80FF91FB8
S11302C08081089580E008951F920F920FB60F92D7
S11302D011242F933F934F935F936F937F938F9347
S11302E09F93AF93BF93EF93FF93809102029091FA
S11302F0030201969093030280930202209102026A
S11303003091030280910A0190910B01281739075B
S113031061F520910A0130910B01809108019091BF
S113032009012817390791F40E9447018093FF01BE
S113033020910601309107018091080190910901F3
S1130340820F931F90930901809308012091060165
S11303503091070180910A0190910B01820F931F44
S113036090930B0180930A0102C01092FF01FF9148
S1130370EF91BF91AF919F918F917F916F915F9119
S11303804F913F912F910F900FBE0F901F90189592
S1130390982F9695969595B98295880F880F807CAD
S11303A08BB90895F8948FE184B980EC8AB986EF0B
S11303B091E00E9400010E9453000E945B00789427
S11303C08091FF010E94C801FBCFA29FB001B39F9F
S11303D0C001A39F700D811D1124911DB29F700D4A
S11303E0811D1124911D08950F931F93CF93DF93C3
S11303F08230910510F482E090E0E0911402F091D3
S1130400150220E030E0A0E0B0E0309719F140811F
S113041051810281138148175907C8F08417950741
S113042069F4109731F012960C93129713961C935B
S113043027C0009314021093150222C02115310520
S113044019F04217530718F49A01BD01EF01DF01B7
S1130450F801DBCF21153105F9F0281B390B2430C5
S1130460310580F48A819B816115710521F0FB01BE
S11304709383828304C09093150280931402FE0137
S1130480329644C0FE01E20FF31F819391932250F0
S11304903109398328833AC0209112023091130222
S11304A0232B41F420910201309103013093130274
S11304B02093120220910001309101012115310590
S11304C041F42DB73EB74091040150910501241B1E
S11304D0350BE0911202F0911302E217F307A0F436
S11304E02E1B3F0B2817390778F0AC014E5F5F4F86
S11304F02417350748F04E0F5F1F509313024093A3
S113050012028193919302C0E0E0F0E0CF01DF9109
S1130510CF911F910F910895CF93DF93009709F422
S113052081C0FC01329713821282A0911402B0910F
S11305301502109781F420813181820F931F20913D
S11305401202309113022817390751F5F093130260
S1130550E093120267C0ED0120E030E0CE17DF0720
S113056040F44A815B819E0141155105F1F0EA0195
S1130570F5CFD383C28340815181840F951FC8175F
S1130580D90759F488819981840F951F0296918324
S113059080838A819B81938382832115310529F489
S11305A0F0931502E09314023DC0E901FB83EA8352
S11305B049915991C40FD51FEC17FD0761F480814F
S11305C09181840F951F0296E90199838883828122
S11305D093819B838A83E0E0F0E012968D919C9155
S11305E01397009719F0FD01DC01F7CF8D919C91D1
S11305F011979D012E5F3F4F820F931F209112028E
S1130600309113022817390769F4309729F41092AE
S113061015021092140202C013821282B0931302C4
S1110620A0931202DF91CF910895F894FFCFBA
S113062E000016022000FF00FF00FF00EF01E801AA
S113063EE101DA01D301CC01C501BE01B701B0015C
S113064EA901A2019B0194018D0186017F0178010C
S113065E71016A0163015C0155014E0147014001BC
S113066E030345597101010040380F304000014227
S113067E761C7603017F071C601E1F4000601F035B
S113068E3E6000007F0101433E000040407F400079
S113069E0000377949690E00037F48486C37030C14
S11306AE3F6143633F01013F48486830000C3E619F
S11306BE41633E00037F700C463F010F783E033CBE
S11306CE7C0700077F01010100013F481C664301BE
S11306DE000603017F00000000007F000000037F7E
S11306EE0808483F010C3E6349692F06000F7C48F9
S11306FE480000013F6949490901037F4141633EB6
S113070E00003E6341612600013F49497B0E000310
S111071E063C641C0603544520495542420023
S9030000FC
