S01700004763634170706C69636174696F6E332E7372656359
S11300000C9434000C94A5000C9451000C945100F1
S11300100C9451000C9451000C9451000C944A021D
S11300200C9451000C9451000C9451000C940A024D
S11300300C9451000C9451000C9452010C945100F6
S11300400C9451000C9451000C9451000C945100E8
S11300500C9451000C9451000C9451000C945100D8
S11300600C9451000C94510011241FBECFEFD8E022
S1130070DEBFCDBF12E0A0E0B1E0E0E6F7E002C0F1
S113008005900D92A230B107D9F722E0A2E0B2E0C8
S113009001C01D92AC31B207E1F70E946B020C94CF
S11300A0AE030C940000CF93DF93EC0189E490E05D
S11300B00E948D02BC01E881EE2301F1219640E00B
S11300C050E08FEB8E0F8A31A8F4F0E0EE0FFF1FA3
S11300D0E257FF4F0190F081E02DDB01A40FB51F23
S11300E09F01295F3F4F91919D932E173F07D9F7A9
S11300F0495F5F4FE991E111E4CF02C040E050E075
S11301005093130240931202FB01E40FF51F8AE09F
S113011080837093170260931602DF91CF91089544
S11301205198E9E6F0E01082808181608083E89A4A
S1130130089514BC15BC16BC8FE987BD85B58260D3
S113014085BD85B5816085BD08951F920F920FB658
S11301500F9211242F933F934F936F937F938F9319
S11301609F93AF93BF93EF93FF9380910602909177
S1130170070201969093070280930602809104027D
S1130180813009F462C008F471C0823009F076C08D
S11301902091060230910702809114029091150279
S11301A08217930708F06AC080910A0190910B01AD
S11301B021E030E0009711F020E030E030930B01B3
S11301C020930A01892B49F4809106029091070239
S11301D090930F0280930E0251C080910602909179
S11301E00702909311028093100220911002309123
S11301F01102AFE8B3EE0E947E020024880F991F1B
S1130200001C880F991F001C892F902D90930701C3
S113021080930601809106019091070190930F014C
S113022080930E01209106013091070144E2429F20
S1130230C001439F900D112490930D0180930C01F4
S1130240109203021092020219C08091060290914A
S113025007029C01220F331F820F931F90931502F4
S11302608093140282E08093040208C0EEE6F0E07A
S113027080818260808381E080930402109207026F
S113028010920602FF91EF91BF91AF919F918F91D0
S11302907F916F914F913F912F910F900FBE0F90CF
S11302A01F9018951F920F920FB60F9211242F933F
S11302B03F938F939F93EF93FF93809106029091C6
S11302C0070201969093070280930602209106028A
S11302D03091070280910E0190910F012817390780
S11302E009F08BC020910E0130910F0180910C0117
S11302F090910D012817390709F070C0809102020E
S113030090910302079794F4809102029091030262
S11303109C012F5F3F4F3093030220930202FC01A4
S1130320E156FE4F8081809305024AC0809102020B
S1130330909103020E979CF4E0910202F091030263
S1130340E05AFE4F808180930502809102029091D1
S113035003020196909303028093020231C08091BC
S113036002029091030245979CF4E0910202F091FD
S11303700302E355FE4F80818093050280910202BF
S1130380909103020196909303028093020218C095
S113039080910202909103024C9794F4E09102023E
S11303A0F0910302EE53FE4F808180930502809109
S11303B00202909103020196909303028093020239
S11303C0209106013091070180910C0190910D015B
S11303D0820F931F90930D0180930C0120910601CD
S11303E03091070180910E0190910F01820F931FAC
S11303F090930F0180930E0102C010920502FF91A9
S1130400EF919F918F913F912F910F900FBE0F907D
S11304101F9018951F920F920FB60F9211242F93CD
S11304203F938F939F9380910802909109020196C4
S113043090930902809308022091080130910901E8
S11304408217930769F410920902109208028091AE
S11304500E0190910F01019690930F0180930E016C
S113046020910E0130910F0180910C0190910D01AA
S11304702817390721F48FEF8093050202C01092E8
S113048005029F918F913F912F910F900FBE0F9076
S11304901F9018951F920F920FB60F9211248F93ED
S11304A09F9380910802909109020196909309020A
S11304B0809308029F918F910F900FBE0F901F9011
S11304C01895982F9695969595B98295880F880FCB
S11304D0807C8BB90895F8948FE184B980EC8AB953
S11304E08AEF91E00E9453000E9490000E949900BC
S11304F07894809105020E946102FBCFA29FB00113
S1130500B39FC001A39F700D811D1124911DB29F43
S1130510700D811D1124911D08950F931F93CF9386
S1130520DF938230910510F482E090E0E0911A02AA
S1130530F0911B0220E030E0A0E0B0E0309719F128
S1130540408151810281138148175907C8F08417EB
S1130550950769F4109731F012960C93129713963D
S11305601C9327C000931A0210931B0222C021156A
S1130570310519F04217530718F49A01BD01EF0130
S1130580DF01F801DBCF21153105F9F0281B390B08
S11305902430310580F48A819B816115710521F035
S11305A0FB019383828304C090931B0280931A02FD
S11305B0FE01329644C0FE01E20FF31F8193919332
S11305C022503109398328833AC02091180230918E
S11305D01902232B41F4209102013091030130933D
S11305E01902209318022091000130910101211574
S11305F0310541F42DB73EB74091040150910501F6
S1130600241B350BE0911802F0911902E217F3074D
S1130610A0F42E1B3F0B2817390778F0AC014E5F6E
S11306205F4F2417350748F04E0F5F1F5093190290
S1130630409318028193919302C0E0E0F0E0CF016F
S1130640DF91CF911F910F910895CF93DF9300977E
S113065009F481C0FC01329713821282A0911A021C
S1130660B0911B02109781F420813181820F931F76
S113067020911802309119022817390751F5F09387
S11306801902E093180267C0ED0120E030E0CE17B4
S1130690DF0740F44A815B819E0141155105F1F069
S11306A0EA01F5CFD383C28340815181840F951F22
S11306B0C817D90759F488819981840F951F029628
S11306C0918380838A819B81938382832115310561
S11306D029F4F0931B02E0931A023DC0E901FB8365
S11306E0EA8349915991C40FD51FEC17FD0761F4B2
S11306F080819181840F951F0296E90199838883F3
S1130700828193819B838A83E0E0F0E012968D914D
S11307109C911397009719F0FD01DC01F7CF8D919F
S11307209C9111979D012E5F3F4F820F931F209143
S11307301802309119022817390769F4309729F4FF
S113074010921B0210921A0202C013821282B093FA
S11307501902A0931802DF91CF910895F894FFCF66
S113076000001C022000FF00FFFF0100FF00FF004B
S1130770F301EC01E501DE01D701D001C901C20199
S1130780BB01B401AD01A6019F01980191018A0149
S113079083017C0175016E016701600159015201F9
S11307A04B014401030345597101010040380F30E6
S11307B040000142761C7603017F071C601E1F4027
S11307C000601F033E6000007F0101433E000040C3
S11307D0407F40000000377949690E00037F484894
S11307E06C37030C3F6143633F01013F4848683065
S11307F0000C3E6141633E00037F700C463F010FD5
S1130800783E033C7C0700077F01010100013F485B
S11308101C664301000603017F00000000007F0006
S11308200000037F0808483F010C3E6349692F0616
S1130830000F7C48480000013F6949490901037FD2
S11308404141633E00003E6341612600013F494946
S11308507B0E0003063C641C0603544520495542A4
S1050860420050
S9030000FC
